{
  "_format": "hh-sol-artifact-1",
  "contractName": "PrizeBond",
  "sourceName": "contracts/PrizeBond.sol",
  "abi": [
    {
      "anonymous": false,
      "inputs": [
        {
          "indexed": true,
          "internalType": "address",
          "name": "account",
          "type": "address"
        },
        {
          "indexed": true,
          "internalType": "address",
          "name": "operator",
          "type": "address"
        },
        {
          "indexed": false,
          "internalType": "bool",
          "name": "approved",
          "type": "bool"
        }
      ],
      "name": "ApprovalForAll",
      "type": "event"
    },
    {
      "anonymous": false,
      "inputs": [
        {
          "indexed": true,
          "internalType": "address",
          "name": "prizebondOwner",
          "type": "address"
        },
        {
          "indexed": false,
          "internalType": "uint256",
          "name": "prizeBondType",
          "type": "uint256"
        },
        {
          "indexed": false,
          "internalType": "uint256",
          "name": "_redeemedId",
          "type": "uint256"
        },
        {
          "indexed": false,
          "internalType": "uint256",
          "name": "totalcount",
          "type": "uint256"
        },
        {
          "indexed": false,
          "internalType": "uint256",
          "name": "bondId",
          "type": "uint256"
        }
      ],
      "name": "BuyPrizeBond",
      "type": "event"
    },
    {
      "anonymous": false,
      "inputs": [
        {
          "indexed": true,
          "internalType": "address",
          "name": "prizebondclaimer",
          "type": "address"
        },
        {
          "indexed": false,
          "internalType": "uint256",
          "name": "prizeBondType",
          "type": "uint256"
        },
        {
          "indexed": false,
          "internalType": "uint256",
          "name": "drawNumber",
          "type": "uint256"
        },
        {
          "indexed": false,
          "internalType": "uint256",
          "name": "prizeCalimed",
          "type": "uint256"
        }
      ],
      "name": "Claimreward",
      "type": "event"
    },
    {
      "anonymous": false,
      "inputs": [
        {
          "indexed": false,
          "internalType": "uint256",
          "name": "prizeBondType",
          "type": "uint256"
        },
        {
          "indexed": false,
          "internalType": "uint256",
          "name": "drawNumer",
          "type": "uint256"
        },
        {
          "indexed": false,
          "internalType": "uint256",
          "name": "prize1",
          "type": "uint256"
        },
        {
          "indexed": false,
          "internalType": "uint256",
          "name": "prize2",
          "type": "uint256"
        },
        {
          "indexed": false,
          "internalType": "uint256",
          "name": "prize3",
          "type": "uint256"
        },
        {
          "indexed": true,
          "internalType": "address",
          "name": "winner1",
          "type": "address"
        },
        {
          "indexed": true,
          "internalType": "address",
          "name": "winner2",
          "type": "address"
        },
        {
          "indexed": true,
          "internalType": "address",
          "name": "winner3",
          "type": "address"
        }
      ],
      "name": "Draw",
      "type": "event"
    },
    {
      "anonymous": false,
      "inputs": [
        {
          "indexed": true,
          "internalType": "address",
          "name": "previousOwner",
          "type": "address"
        },
        {
          "indexed": true,
          "internalType": "address",
          "name": "newOwner",
          "type": "address"
        }
      ],
      "name": "OwnershipTransferred",
      "type": "event"
    },
    {
      "anonymous": false,
      "inputs": [
        {
          "indexed": false,
          "internalType": "uint256",
          "name": "prizeBondType",
          "type": "uint256"
        },
        {
          "indexed": false,
          "internalType": "uint256",
          "name": "totalDraw",
          "type": "uint256"
        },
        {
          "indexed": false,
          "internalType": "uint256",
          "name": "winningAmount1",
          "type": "uint256"
        },
        {
          "indexed": false,
          "internalType": "uint256",
          "name": "winningAmount2",
          "type": "uint256"
        },
        {
          "indexed": false,
          "internalType": "uint256",
          "name": "winningAmount3",
          "type": "uint256"
        }
      ],
      "name": "PrizeBondAdded",
      "type": "event"
    },
    {
      "anonymous": false,
      "inputs": [
        {
          "indexed": true,
          "internalType": "address",
          "name": "prizebondOwner",
          "type": "address"
        },
        {
          "indexed": false,
          "internalType": "uint256",
          "name": "prizeBondType",
          "type": "uint256"
        },
        {
          "indexed": false,
          "internalType": "uint256",
          "name": "bondId",
          "type": "uint256"
        }
      ],
      "name": "Redeemed",
      "type": "event"
    },
    {
      "anonymous": false,
      "inputs": [
        {
          "indexed": false,
          "internalType": "uint256",
          "name": "prizeBondType",
          "type": "uint256"
        },
        {
          "indexed": false,
          "internalType": "uint256",
          "name": "price1",
          "type": "uint256"
        },
        {
          "indexed": false,
          "internalType": "uint256",
          "name": "price2",
          "type": "uint256"
        },
        {
          "indexed": false,
          "internalType": "uint256",
          "name": "price3",
          "type": "uint256"
        }
      ],
      "name": "SetWinning",
      "type": "event"
    },
    {
      "anonymous": false,
      "inputs": [
        {
          "indexed": true,
          "internalType": "address",
          "name": "operator",
          "type": "address"
        },
        {
          "indexed": true,
          "internalType": "address",
          "name": "from",
          "type": "address"
        },
        {
          "indexed": true,
          "internalType": "address",
          "name": "to",
          "type": "address"
        },
        {
          "indexed": false,
          "internalType": "uint256[]",
          "name": "ids",
          "type": "uint256[]"
        },
        {
          "indexed": false,
          "internalType": "uint256[]",
          "name": "values",
          "type": "uint256[]"
        }
      ],
      "name": "TransferBatch",
      "type": "event"
    },
    {
      "anonymous": false,
      "inputs": [
        {
          "indexed": true,
          "internalType": "address",
          "name": "operator",
          "type": "address"
        },
        {
          "indexed": true,
          "internalType": "address",
          "name": "from",
          "type": "address"
        },
        {
          "indexed": true,
          "internalType": "address",
          "name": "to",
          "type": "address"
        },
        {
          "indexed": false,
          "internalType": "uint256",
          "name": "id",
          "type": "uint256"
        },
        {
          "indexed": false,
          "internalType": "uint256",
          "name": "value",
          "type": "uint256"
        }
      ],
      "name": "TransferSingle",
      "type": "event"
    },
    {
      "anonymous": false,
      "inputs": [
        {
          "indexed": false,
          "internalType": "string",
          "name": "value",
          "type": "string"
        },
        {
          "indexed": true,
          "internalType": "uint256",
          "name": "id",
          "type": "uint256"
        }
      ],
      "name": "URI",
      "type": "event"
    },
    {
      "inputs": [
        {
          "internalType": "address",
          "name": "account",
          "type": "address"
        },
        {
          "internalType": "uint256",
          "name": "id",
          "type": "uint256"
        }
      ],
      "name": "balanceOf",
      "outputs": [
        {
          "internalType": "uint256",
          "name": "",
          "type": "uint256"
        }
      ],
      "stateMutability": "view",
      "type": "function"
    },
    {
      "inputs": [
        {
          "internalType": "address[]",
          "name": "accounts",
          "type": "address[]"
        },
        {
          "internalType": "uint256[]",
          "name": "ids",
          "type": "uint256[]"
        }
      ],
      "name": "balanceOfBatch",
      "outputs": [
        {
          "internalType": "uint256[]",
          "name": "",
          "type": "uint256[]"
        }
      ],
      "stateMutability": "view",
      "type": "function"
    },
    {
      "inputs": [
        {
          "internalType": "address",
          "name": "account",
          "type": "address"
        },
        {
          "internalType": "uint256",
          "name": "id",
          "type": "uint256"
        },
        {
          "internalType": "uint256",
          "name": "value",
          "type": "uint256"
        }
      ],
      "name": "burn",
      "outputs": [],
      "stateMutability": "nonpayable",
      "type": "function"
    },
    {
      "inputs": [
        {
          "internalType": "address",
          "name": "account",
          "type": "address"
        },
        {
          "internalType": "uint256[]",
          "name": "ids",
          "type": "uint256[]"
        },
        {
          "internalType": "uint256[]",
          "name": "values",
          "type": "uint256[]"
        }
      ],
      "name": "burnBatch",
      "outputs": [],
      "stateMutability": "nonpayable",
      "type": "function"
    },
    {
      "inputs": [
        {
          "internalType": "uint256",
          "name": "_Bondtype",
          "type": "uint256"
        }
      ],
      "name": "buyPB",
      "outputs": [],
      "stateMutability": "payable",
      "type": "function"
    },
    {
      "inputs": [
        {
          "internalType": "uint256",
          "name": "_bondtype",
          "type": "uint256"
        },
        {
          "internalType": "uint256",
          "name": "_drawnumber",
          "type": "uint256"
        }
      ],
      "name": "claimRewards",
      "outputs": [],
      "stateMutability": "nonpayable",
      "type": "function"
    },
    {
      "inputs": [],
      "name": "contractBalance",
      "outputs": [
        {
          "internalType": "uint256",
          "name": "",
          "type": "uint256"
        }
      ],
      "stateMutability": "view",
      "type": "function"
    },
    {
      "inputs": [],
      "name": "deposit",
      "outputs": [],
      "stateMutability": "payable",
      "type": "function"
    },
    {
      "inputs": [
        {
          "internalType": "uint256",
          "name": "id",
          "type": "uint256"
        }
      ],
      "name": "exists",
      "outputs": [
        {
          "internalType": "bool",
          "name": "",
          "type": "bool"
        }
      ],
      "stateMutability": "view",
      "type": "function"
    },
    {
      "inputs": [
        {
          "internalType": "uint256",
          "name": "_bondtype",
          "type": "uint256"
        }
      ],
      "name": "getAddedPb",
      "outputs": [
        {
          "components": [
            {
              "internalType": "uint256",
              "name": "prizeBondType",
              "type": "uint256"
            },
            {
              "internalType": "uint256",
              "name": "totalDraw",
              "type": "uint256"
            },
            {
              "internalType": "uint256",
              "name": "winningAmount1",
              "type": "uint256"
            },
            {
              "internalType": "uint256",
              "name": "winningAmount2",
              "type": "uint256"
            },
            {
              "internalType": "uint256",
              "name": "winningAmount3",
              "type": "uint256"
            },
            {
              "internalType": "uint256",
              "name": "drawnumber",
              "type": "uint256"
            },
            {
              "internalType": "uint256",
              "name": "maxSupply",
              "type": "uint256"
            }
          ],
          "internalType": "struct PrizeBond._setPB",
          "name": "",
          "type": "tuple"
        }
      ],
      "stateMutability": "view",
      "type": "function"
    },
    {
      "inputs": [
        {
          "internalType": "uint256",
          "name": "_bondtype",
          "type": "uint256"
        },
        {
          "internalType": "uint256",
          "name": "_drawnumber",
          "type": "uint256"
        }
      ],
      "name": "getWinners",
      "outputs": [
        {
          "components": [
            {
              "internalType": "address",
              "name": "winner1",
              "type": "address"
            },
            {
              "internalType": "address",
              "name": "winner2",
              "type": "address"
            },
            {
              "internalType": "address",
              "name": "winner3",
              "type": "address"
            },
            {
              "internalType": "bool",
              "name": "drawstatus",
              "type": "bool"
            },
            {
              "internalType": "bool[3]",
              "name": "isTrue",
              "type": "bool[3]"
            }
          ],
          "internalType": "struct PrizeBond.DrawWinners",
          "name": "",
          "type": "tuple"
        }
      ],
      "stateMutability": "view",
      "type": "function"
    },
    {
      "inputs": [
        {
          "internalType": "uint256",
          "name": "_bondtype",
          "type": "uint256"
        },
        {
          "internalType": "uint256",
          "name": "_bondid",
          "type": "uint256"
        }
      ],
      "name": "getbuyPB",
      "outputs": [
        {
          "components": [
            {
              "internalType": "address",
              "name": "userAddress",
              "type": "address"
            },
            {
              "internalType": "uint256",
              "name": "bondId",
              "type": "uint256"
            },
            {
              "internalType": "uint256",
              "name": "bondAmount",
              "type": "uint256"
            }
          ],
          "internalType": "struct PrizeBond.user",
          "name": "",
          "type": "tuple"
        }
      ],
      "stateMutability": "view",
      "type": "function"
    },
    {
      "inputs": [
        {
          "internalType": "address",
          "name": "account",
          "type": "address"
        },
        {
          "internalType": "address",
          "name": "operator",
          "type": "address"
        }
      ],
      "name": "isApprovedForAll",
      "outputs": [
        {
          "internalType": "bool",
          "name": "",
          "type": "bool"
        }
      ],
      "stateMutability": "view",
      "type": "function"
    },
    {
      "inputs": [
        {
          "internalType": "uint256",
          "name": "_bondType",
          "type": "uint256"
        }
      ],
      "name": "luckyDraw",
      "outputs": [],
      "stateMutability": "payable",
      "type": "function"
    },
    {
      "inputs": [
        {
          "internalType": "address",
          "name": "account",
          "type": "address"
        },
        {
          "internalType": "uint256",
          "name": "id",
          "type": "uint256"
        },
        {
          "internalType": "uint256",
          "name": "amount",
          "type": "uint256"
        },
        {
          "internalType": "bytes",
          "name": "data",
          "type": "bytes"
        }
      ],
      "name": "mint",
      "outputs": [],
      "stateMutability": "nonpayable",
      "type": "function"
    },
    {
      "inputs": [
        {
          "internalType": "address",
          "name": "to",
          "type": "address"
        },
        {
          "internalType": "uint256[]",
          "name": "ids",
          "type": "uint256[]"
        },
        {
          "internalType": "uint256[]",
          "name": "amounts",
          "type": "uint256[]"
        },
        {
          "internalType": "bytes",
          "name": "data",
          "type": "bytes"
        }
      ],
      "name": "mintBatch",
      "outputs": [],
      "stateMutability": "nonpayable",
      "type": "function"
    },
    {
      "inputs": [
        {
          "internalType": "address",
          "name": "",
          "type": "address"
        },
        {
          "internalType": "address",
          "name": "",
          "type": "address"
        },
        {
          "internalType": "uint256[]",
          "name": "",
          "type": "uint256[]"
        },
        {
          "internalType": "uint256[]",
          "name": "",
          "type": "uint256[]"
        },
        {
          "internalType": "bytes",
          "name": "",
          "type": "bytes"
        }
      ],
      "name": "onERC1155BatchReceived",
      "outputs": [
        {
          "internalType": "bytes4",
          "name": "",
          "type": "bytes4"
        }
      ],
      "stateMutability": "nonpayable",
      "type": "function"
    },
    {
      "inputs": [
        {
          "internalType": "address",
          "name": "",
          "type": "address"
        },
        {
          "internalType": "address",
          "name": "",
          "type": "address"
        },
        {
          "internalType": "uint256",
          "name": "",
          "type": "uint256"
        },
        {
          "internalType": "uint256",
          "name": "",
          "type": "uint256"
        },
        {
          "internalType": "bytes",
          "name": "",
          "type": "bytes"
        }
      ],
      "name": "onERC1155Received",
      "outputs": [
        {
          "internalType": "bytes4",
          "name": "",
          "type": "bytes4"
        }
      ],
      "stateMutability": "nonpayable",
      "type": "function"
    },
    {
      "inputs": [],
      "name": "owner",
      "outputs": [
        {
          "internalType": "address",
          "name": "",
          "type": "address"
        }
      ],
      "stateMutability": "view",
      "type": "function"
    },
    {
      "inputs": [
        {
          "internalType": "uint256",
          "name": "_Bondtype",
          "type": "uint256"
        },
        {
          "internalType": "uint256",
          "name": "_BondId",
          "type": "uint256"
        }
      ],
      "name": "redeem",
      "outputs": [],
      "stateMutability": "nonpayable",
      "type": "function"
    },
    {
      "inputs": [],
      "name": "renounceOwnership",
      "outputs": [],
      "stateMutability": "nonpayable",
      "type": "function"
    },
    {
      "inputs": [
        {
          "internalType": "address",
          "name": "from",
          "type": "address"
        },
        {
          "internalType": "address",
          "name": "to",
          "type": "address"
        },
        {
          "internalType": "uint256[]",
          "name": "ids",
          "type": "uint256[]"
        },
        {
          "internalType": "uint256[]",
          "name": "amounts",
          "type": "uint256[]"
        },
        {
          "internalType": "bytes",
          "name": "data",
          "type": "bytes"
        }
      ],
      "name": "safeBatchTransferFrom",
      "outputs": [],
      "stateMutability": "nonpayable",
      "type": "function"
    },
    {
      "inputs": [
        {
          "internalType": "address",
          "name": "from",
          "type": "address"
        },
        {
          "internalType": "address",
          "name": "to",
          "type": "address"
        },
        {
          "internalType": "uint256",
          "name": "id",
          "type": "uint256"
        },
        {
          "internalType": "uint256",
          "name": "amount",
          "type": "uint256"
        },
        {
          "internalType": "bytes",
          "name": "data",
          "type": "bytes"
        }
      ],
      "name": "safeTransferFrom",
      "outputs": [],
      "stateMutability": "nonpayable",
      "type": "function"
    },
    {
      "inputs": [
        {
          "internalType": "address",
          "name": "operator",
          "type": "address"
        },
        {
          "internalType": "bool",
          "name": "approved",
          "type": "bool"
        }
      ],
      "name": "setApprovalForAll",
      "outputs": [],
      "stateMutability": "nonpayable",
      "type": "function"
    },
    {
      "inputs": [
        {
          "internalType": "uint256",
          "name": "_prizeBondType",
          "type": "uint256"
        },
        {
          "internalType": "uint256",
          "name": "_totalDraw",
          "type": "uint256"
        },
        {
          "internalType": "uint256",
          "name": "_winningAmount1",
          "type": "uint256"
        },
        {
          "internalType": "uint256",
          "name": "_winningAmount2",
          "type": "uint256"
        },
        {
          "internalType": "uint256",
          "name": "_winningAmount3",
          "type": "uint256"
        },
        {
          "internalType": "uint256",
          "name": "_maxSupply",
          "type": "uint256"
        }
      ],
      "name": "setPB",
      "outputs": [],
      "stateMutability": "nonpayable",
      "type": "function"
    },
    {
      "inputs": [
        {
          "internalType": "string",
          "name": "newuri",
          "type": "string"
        }
      ],
      "name": "setURI",
      "outputs": [],
      "stateMutability": "nonpayable",
      "type": "function"
    },
    {
      "inputs": [
        {
          "internalType": "bytes4",
          "name": "interfaceId",
          "type": "bytes4"
        }
      ],
      "name": "supportsInterface",
      "outputs": [
        {
          "internalType": "bool",
          "name": "",
          "type": "bool"
        }
      ],
      "stateMutability": "view",
      "type": "function"
    },
    {
      "inputs": [
        {
          "internalType": "uint256",
          "name": "id",
          "type": "uint256"
        }
      ],
      "name": "totalSupply",
      "outputs": [
        {
          "internalType": "uint256",
          "name": "",
          "type": "uint256"
        }
      ],
      "stateMutability": "view",
      "type": "function"
    },
    {
      "inputs": [
        {
          "internalType": "address",
          "name": "newOwner",
          "type": "address"
        }
      ],
      "name": "transferOwnership",
      "outputs": [],
      "stateMutability": "nonpayable",
      "type": "function"
    },
    {
      "inputs": [
        {
          "internalType": "uint256",
          "name": "",
          "type": "uint256"
        }
      ],
      "name": "uri",
      "outputs": [
        {
          "internalType": "string",
          "name": "",
          "type": "string"
        }
      ],
      "stateMutability": "view",
      "type": "function"
    },
    {
      "inputs": [],
      "name": "withdrawOwner",
      "outputs": [],
      "stateMutability": "nonpayable",
      "type": "function"
    }
  ],
  "bytecode": "0x60806040523480156200001157600080fd5b506040805160208101909152600081526200002c816200003e565b50620000383362000057565b6200018c565b805162000053906002906020840190620000a9565b5050565b600380546001600160a01b038381166001600160a01b0319831681179093556040519116919082907f8be0079c531659141344cd1fd0a4f28419497f9722a3daafe3b4186f6b6457e090600090a35050565b828054620000b7906200014f565b90600052602060002090601f016020900481019282620000db576000855562000126565b82601f10620000f657805160ff191683800117855562000126565b8280016001018555821562000126579182015b828111156200012657825182559160200191906001019062000109565b506200013492915062000138565b5090565b5b8082111562000134576000815560010162000139565b600181811c908216806200016457607f821691505b602082108114156200018657634e487b7160e01b600052602260045260246000fd5b50919050565b61411b806200019c6000396000f3fe6080604052600436106101d75760003560e01c806382fc42ce11610102578063bd85b03911610095578063f23a6e6111610064578063f23a6e6114610626578063f242432a14610652578063f2fde38b14610672578063f5298aca1461069257600080fd5b8063bd85b03914610593578063d0e30db0146105c0578063e8cc00ad146105c8578063e985e9c5146105dd57600080fd5b8063a22cb465116100d1578063a22cb465146104c3578063ab79fa3f146104e3578063bc197c8114610503578063bd7660891461054857600080fd5b806382fc42ce146103ff5780638519c14e146104755780638b7afe2e146104885780638da5cb5b1461049b57600080fd5b80634e1273f41161017a5780636d6ae1a8116101495780636d6ae1a814610397578063715018a6146103aa578063731133e9146103bf5780637cbc2373146103df57600080fd5b80634e1273f4146102fb5780634f558e7914610328578063594dd432146103575780636b20c4541461037757600080fd5b80630e89341c116101b65780630e89341c146102615780631f7fdffa1461028e57806328fd8fc4146102ae5780632eb2c2d6146102db57600080fd5b8062fdd58e146101dc57806301ffc9a71461020f57806302fe53051461023f575b600080fd5b3480156101e857600080fd5b506101fc6101f73660046136c9565b6106b2565b6040519081526020015b60405180910390f35b34801561021b57600080fd5b5061022f61022a366004613709565b61075b565b6040519015158152602001610206565b34801561024b57600080fd5b5061025f61025a3660046137ce565b61076c565b005b34801561026d57600080fd5b5061028161027c36600461381f565b610780565b6040516102069190613885565b34801561029a57600080fd5b5061025f6102a936600461394d565b610814565b3480156102ba57600080fd5b506102ce6102c93660046139e6565b61082e565b6040516102069190613a08565b3480156102e757600080fd5b5061025f6102f6366004613a79565b6108f7565b34801561030757600080fd5b5061031b610316366004613b23565b61098a565b6040516102069190613c29565b34801561033457600080fd5b5061022f61034336600461381f565b600090815260046020526040902054151590565b34801561036357600080fd5b5061025f6103723660046139e6565b610ac8565b34801561038357600080fd5b5061025f610392366004613c3c565b61108f565b61025f6103a536600461381f565b61111e565b3480156103b657600080fd5b5061025f611756565b3480156103cb57600080fd5b5061025f6103da366004613cb0565b61176a565b3480156103eb57600080fd5b5061025f6103fa3660046139e6565b61177e565b34801561040b57600080fd5b5061041f61041a36600461381f565b611957565b6040516102069190600060e082019050825182526020830151602083015260408301516040830152606083015160608301526080830151608083015260a083015160a083015260c083015160c083015292915050565b61025f61048336600461381f565b611a0b565b34801561049457600080fd5b50476101fc565b3480156104a757600080fd5b506003546040516001600160a01b039091168152602001610206565b3480156104cf57600080fd5b5061025f6104de366004613d05565b611b73565b3480156104ef57600080fd5b5061025f6104fe366004613d41565b611b82565b34801561050f57600080fd5b5061052f61051e366004613a79565b63bc197c8160e01b95945050505050565b6040516001600160e01b03199091168152602001610206565b34801561055457600080fd5b506105686105633660046139e6565b611cc3565b6040805182516001600160a01b03168152602080840151908201529181015190820152606001610206565b34801561059f57600080fd5b506101fc6105ae36600461381f565b60009081526004602052604090205490565b61025f611d38565b3480156105d457600080fd5b5061025f611d40565b3480156105e957600080fd5b5061022f6105f8366004613d84565b6001600160a01b03918216600090815260016020908152604080832093909416825291909152205460ff1690565b34801561063257600080fd5b5061052f610641366004613db7565b63f23a6e6160e01b95945050505050565b34801561065e57600080fd5b5061025f61066d366004613db7565b611d81565b34801561067e57600080fd5b5061025f61068d366004613e1c565b611e0d565b34801561069e57600080fd5b5061025f6106ad366004613e37565b611e9a565b60006001600160a01b0383166107355760405162461bcd60e51b815260206004820152602a60248201527f455243313135353a2061646472657373207a65726f206973206e6f742061207660448201527f616c6964206f776e65720000000000000000000000000000000000000000000060648201526084015b60405180910390fd5b506000908152602081815260408083206001600160a01b03949094168352929052205490565b600061076682611f24565b92915050565b610774611f62565b61077d81611fbc565b50565b60606002805461078f90613e6a565b80601f01602080910402602001604051908101604052809291908181526020018280546107bb90613e6a565b80156108085780601f106107dd57610100808354040283529160200191610808565b820191906000526020600020905b8154815290600101906020018083116107eb57829003601f168201915b50505050509050919050565b61081c611f62565b61082884848484611fcf565b50505050565b6108366135c6565b60008381526007602090815260408083208584528252808320815160a08101835281546001600160a01b0390811682526001830154811694820194909452600282015493841681840152600160a01b90930460ff161515606080850191909152825190810192839052929390926080850192909160038086019290918390855b825461010083900a900460ff1615158152602060019283018181049485019490930390920291018084116108b6579050505050505081525050905092915050565b6001600160a01b038516331480610913575061091385336105f8565b6109765760405162461bcd60e51b815260206004820152602e60248201527f455243313135353a2063616c6c6572206973206e6f7420746f6b656e206f776e60448201526d195c881bdc88185c1c1c9bdd995960921b606482015260840161072c565b61098385858585856121a4565b5050505050565b60608151835114610a035760405162461bcd60e51b815260206004820152602960248201527f455243313135353a206163636f756e747320616e6420696473206c656e67746860448201527f206d69736d617463680000000000000000000000000000000000000000000000606482015260840161072c565b6000835167ffffffffffffffff811115610a1f57610a1f61372d565b604051908082528060200260200182016040528015610a48578160200160208202803683370190505b50905060005b8451811015610ac057610a93858281518110610a6c57610a6c613ea5565b6020026020010151858381518110610a8657610a86613ea5565b60200260200101516106b2565b828281518110610aa557610aa5613ea5565b6020908102919091010152610ab981613ed1565b9050610a4e565b509392505050565b60008281526007602090815260408083208484528252808320815160a08101835281546001600160a01b0390811682526001830154811694820194909452600282015493841681840152600160a01b90930460ff16151560608085019190915282519081019283905290916080840191906003808501918288855b825461010083900a900460ff161515815260206001928301818104948501949093039092029101808411610b43579050505050919092525050506000848152600960209081526040808320815160e08101835281548152600180830154828601526002830154828501526003830154606083015260048301546080830152600583015460a083015260069283015460c0830152898652918452828520888652909352922090910154919250908314610c3d5760405162461bcd60e51b815260206004820152600f60248201527f4472617720494420696e76616c69640000000000000000000000000000000000604482015260640161072c565b60608201511515600114610c935760405162461bcd60e51b815260206004820152601b60248201527f546869732064726177206973206e6f7420447261776e20596574210000000000604482015260640161072c565b60408101516060820151608083015184516001600160a01b0316336001600160a01b03161480610cd8575060208501516001600160a01b0316336001600160a01b0316145b80610cf8575060408501516001600160a01b0316336001600160a01b0316145b610d445760405162461bcd60e51b815260206004820152601660248201527f596f7520617265206e6f74207468652057696e6e657200000000000000000000604482015260640161072c565b84516001600160a01b0316336001600160a01b03161415610e545760808501515115610dbe5760405162461bcd60e51b8152602060048201526024808201527f596f75206861766520616c726561647920636c61696d656420796f75722072656044820152631dd85c9960e21b606482015260840161072c565b6000878152600760209081526040808320898452909152808220600301805460ff191660011790555133916108fc861502918691818181858888f19350505050158015610e0f573d6000803e3d6000fd5b506040805188815260208101889052808201859052905133917f97f7ea84f52761882e98e37be980b60435d59df172297bc681b727eedce58a5b919081900360600190a25b60208501516001600160a01b0316336001600160a01b03161415610f6c5760808501516020015115610ed45760405162461bcd60e51b8152602060048201526024808201527f596f75206861766520616c726561647920636c61696d656420796f75722072656044820152631dd85c9960e21b606482015260840161072c565b6000878152600760209081526040808320898452909152808220600301805461ff0019166101001790555133916108fc851502918591818181858888f19350505050158015610f27573d6000803e3d6000fd5b506040805188815260208101889052808201849052905133917f97f7ea84f52761882e98e37be980b60435d59df172297bc681b727eedce58a5b919081900360600190a25b60408501516001600160a01b0316336001600160a01b031614156110865760808501516040015115610fec5760405162461bcd60e51b8152602060048201526024808201527f596f75206861766520616c726561647920636c61696d656420796f75722072656044820152631dd85c9960e21b606482015260840161072c565b6000878152600760209081526040808320898452909152808220600301805462ff00001916620100001790555133916108fc841502918491818181858888f19350505050158015611041573d6000803e3d6000fd5b506040805188815260208101889052808201839052905133917f97f7ea84f52761882e98e37be980b60435d59df172297bc681b727eedce58a5b919081900360600190a25b50505050505050565b6001600160a01b0383163314806110ab57506110ab83336105f8565b61110e5760405162461bcd60e51b815260206004820152602e60248201527f455243313135353a2063616c6c6572206973206e6f7420746f6b656e206f776e60448201526d195c881bdc88185c1c1c9bdd995960921b606482015260840161072c565b611119838383612410565b505050565b611126611f62565b600061113a6003546001600160a01b031690565b905060016009600084815260200190815260200160002060050160008282546111639190613eec565b9091555050600082815260096020908152604091829020825160e0810184528154815260018201549281018390526002820154938101939093526003810154606084015260048101546080840152600581015460a0840181905260069091015460c0840152908111156112185760405162461bcd60e51b815260206004820152601a60248201527f204d6178696d756d2064726177206c696d697420657863656564000000000000604482015260640161072c565b6040820151606083015160808401516000816112348486613eec565b61123e9190613eec565b90508034146112b55760405162461bcd60e51b815260206004820152602660248201527f596f75206d757374206465706f7369742074686520546f74616c207072697a6560448201527f206d6f6e65790000000000000000000000000000000000000000000000000000606482015260840161072c565b60008060006112c38b612665565b925092509250600660008c8152602001908152602001600020600084815260200190815260200160002060000160009054906101000a90046001600160a01b0316600760008d815260200190815260200160002060008a815260200190815260200160002060000160006101000a8154816001600160a01b0302191690836001600160a01b03160217905550600660008c8152602001908152602001600020600083815260200190815260200160002060000160009054906101000a90046001600160a01b0316600760008d815260200190815260200160002060008a815260200190815260200160002060010160006101000a8154816001600160a01b0302191690836001600160a01b03160217905550600660008c8152602001908152602001600020600082815260200190815260200160002060000160009054906101000a90046001600160a01b0316600760008d815260200190815260200160002060008a815260200190815260200160002060020160006101000a8154816001600160a01b0302191690836001600160a01b031602179055506000600760008d815260200190815260200160002060008a81526020019081526020016000206040518060a00160405290816000820160009054906101000a90046001600160a01b03166001600160a01b03166001600160a01b031681526020016001820160009054906101000a90046001600160a01b03166001600160a01b03166001600160a01b031681526020016002820160009054906101000a90046001600160a01b03166001600160a01b03166001600160a01b031681526020016002820160149054906101000a900460ff1615151515815260200160038201600380602002604051908101604052809291908260038015611590576020028201916000905b825461010083900a900460ff16151581526020600192830181810494850194909303909202910180841161155f5790505b5050509190925250508151919250506001600160a01b03163014156115e7576040516001600160a01b038c169089156108fc02908a906000818181858888f193505050501580156115e5573d6000803e3d6000fd5b505b60208101516001600160a01b0316301415611634576040516001600160a01b038c169088156108fc029089906000818181858888f19350505050158015611632573d6000803e3d6000fd5b505b60408101516001600160a01b0316301415611681576040516001600160a01b038c169087156108fc029088906000818181858888f1935050505015801561167f573d6000803e3d6000fd5b505b6001600760008e815260200190815260200160002060008b815260200190815260200160002060020160146101000a81548160ff02191690831515021790555080604001516001600160a01b031681602001516001600160a01b031682600001516001600160a01b03167fc178334c708e8910f52d20f55794cbe4f24d24d1a1aa4fc33f6e3902f802843f8f8d8d8d8d604051611740959493929190948552602085019390935260408401919091526060830152608082015260a00190565b60405180910390a4505050505050505050505050565b61175e611f62565b61176860006127df565b565b611772611f62565b6108288484848461283e565b60008281526006602090815260408083208484529091529020546001600160a01b03163381146117ad57600080fd5b60008381526006602090815260408083208584529091529020600201548084146118195760405162461bcd60e51b815260206004820152601260248201527f696e76616c696420426f6e642050726963650000000000000000000000000000604482015260640161072c565b60008481526006602090815260408083208684529091529020600101548084146118855760405162461bcd60e51b815260206004820152601060248201527f496e7661696c6420426f6e642049642000000000000000000000000000000000604482015260640161072c565b6118ae33308760016040518060400160405280600381526020016203078360ec1b815250612958565b60008581526006602090815260408083208784528252808320805473ffffffffffffffffffffffffffffffffffffffff19163017905587835260058252822080546001810182559083529120018490556119053390565b6001600160a01b03167ff3a670cd3af7d64b488926880889d08a8585a138ff455227af6737339a1ec2628686604051611948929190918252602082015260400190565b60405180910390a25050505050565b6119976040518060e00160405280600081526020016000815260200160008152602001600081526020016000815260200160008152602001600081525090565b61199f611f62565b600960008381526020019081526020016000206040518060e001604052908160008201548152602001600182015481526020016002820154815260200160038201548152602001600482015481526020016005820154815260200160068201548152505090505b919050565b6000818152600960205260409020548114611a8e5760405162461bcd60e51b815260206004820152602160248201527f54686973205072697a6520426f6e64206973206e6f742069737375656420596560448201527f7400000000000000000000000000000000000000000000000000000000000000606482015260840161072c565b803414611add5760405162461bcd60e51b815260206004820152600e60248201527f496e76616c696420507269636520000000000000000000000000000000000000604482015260640161072c565b6000611af16003546001600160a01b031690565b9050336001600160a01b0382161415611b4c5760405162461bcd60e51b815260206004820152601460248201527f4f776e65722063616e27742062757920426f6e64000000000000000000000000604482015260640161072c565b60008281526004602090815260408083205460059092529091205461082883858385612b11565b611b7e338383612e1d565b5050565b611b8a611f62565b600086815260096020526040902054861415611be85760405162461bcd60e51b815260206004820152600d60248201527f416c726561647920416464656400000000000000000000000000000000000000604482015260640161072c565b6040805160e08101825287815260208082018881528284018881526060840188815260808501888152600060a0870181815260c088018a81528f835260099097528882209751885594516001880155925160028701559051600386015551600485015590516005840155905160069092019190915590517f82c981d80436223d9be6631bfce4e1d58eda876aa5c7a84294d16e0162c3386d90611cb29089908990899089908990948552602085019390935260408401919091526060830152608082015260a00190565b60405180910390a150505050505050565b611cf0604051806060016040528060006001600160a01b0316815260200160008152602001600081525090565b50600091825260066020908152604080842092845291815291819020815160608101835281546001600160a01b03168152600182015493810193909352600201549082015290565b611768611f62565b611d48611f62565b6003546040516001600160a01b03909116904780156108fc02916000818181858888f1935050505015801561077d573d6000803e3d6000fd5b6001600160a01b038516331480611d9d5750611d9d85336105f8565b611e005760405162461bcd60e51b815260206004820152602e60248201527f455243313135353a2063616c6c6572206973206e6f7420746f6b656e206f776e60448201526d195c881bdc88185c1c1c9bdd995960921b606482015260840161072c565b6109838585858585612958565b611e15611f62565b6001600160a01b038116611e915760405162461bcd60e51b815260206004820152602660248201527f4f776e61626c653a206e6577206f776e657220697320746865207a65726f206160448201527f6464726573730000000000000000000000000000000000000000000000000000606482015260840161072c565b61077d816127df565b6001600160a01b038316331480611eb65750611eb683336105f8565b611f195760405162461bcd60e51b815260206004820152602e60248201527f455243313135353a2063616c6c6572206973206e6f7420746f6b656e206f776e60448201526d195c881bdc88185c1c1c9bdd995960921b606482015260840161072c565b611119838383612f12565b60006001600160e01b031982167f4e2312e00000000000000000000000000000000000000000000000000000000014806107665750610766826130a2565b6003546001600160a01b031633146117685760405162461bcd60e51b815260206004820181905260248201527f4f776e61626c653a2063616c6c6572206973206e6f7420746865206f776e6572604482015260640161072c565b8051611b7e9060029060208401906135fb565b6001600160a01b03841661202f5760405162461bcd60e51b815260206004820152602160248201527f455243313135353a206d696e7420746f20746865207a65726f206164647265736044820152607360f81b606482015260840161072c565b81518351146120915760405162461bcd60e51b815260206004820152602860248201527f455243313135353a2069647320616e6420616d6f756e7473206c656e677468206044820152670dad2e6dac2e8c6d60c31b606482015260840161072c565b336120a18160008787878761313d565b60005b845181101561213c578381815181106120bf576120bf613ea5565b60200260200101516000808784815181106120dc576120dc613ea5565b602002602001015181526020019081526020016000206000886001600160a01b03166001600160a01b0316815260200190815260200160002060008282546121249190613eec565b9091555081905061213481613ed1565b9150506120a4565b50846001600160a01b031660006001600160a01b0316826001600160a01b03167f4a39dc06d4c0dbc64b70af90fd698a233a518aa5d07e595d983b8c0526c8f7fb878760405161218d929190613f04565b60405180910390a46109838160008787878761314b565b81518351146122065760405162461bcd60e51b815260206004820152602860248201527f455243313135353a2069647320616e6420616d6f756e7473206c656e677468206044820152670dad2e6dac2e8c6d60c31b606482015260840161072c565b6001600160a01b03841661226a5760405162461bcd60e51b815260206004820152602560248201527f455243313135353a207472616e7366657220746f20746865207a65726f206164604482015264647265737360d81b606482015260840161072c565b3361227981878787878761313d565b60005b84518110156123a257600085828151811061229957612299613ea5565b6020026020010151905060008583815181106122b7576122b7613ea5565b602090810291909101810151600084815280835260408082206001600160a01b038e16835290935291909120549091508181101561234a5760405162461bcd60e51b815260206004820152602a60248201527f455243313135353a20696e73756666696369656e742062616c616e636520666f60448201526939103a3930b739b332b960b11b606482015260840161072c565b6000838152602081815260408083206001600160a01b038e8116855292528083208585039055908b16825281208054849290612387908490613eec565b925050819055505050508061239b90613ed1565b905061227c565b50846001600160a01b0316866001600160a01b0316826001600160a01b03167f4a39dc06d4c0dbc64b70af90fd698a233a518aa5d07e595d983b8c0526c8f7fb87876040516123f2929190613f04565b60405180910390a461240881878787878761314b565b505050505050565b6001600160a01b0383166124725760405162461bcd60e51b815260206004820152602360248201527f455243313135353a206275726e2066726f6d20746865207a65726f206164647260448201526265737360e81b606482015260840161072c565b80518251146124d45760405162461bcd60e51b815260206004820152602860248201527f455243313135353a2069647320616e6420616d6f756e7473206c656e677468206044820152670dad2e6dac2e8c6d60c31b606482015260840161072c565b60003390506124f78185600086866040518060200160405280600081525061313d565b60005b83518110156125f857600084828151811061251757612517613ea5565b60200260200101519050600084838151811061253557612535613ea5565b602090810291909101810151600084815280835260408082206001600160a01b038c1683529093529190912054909150818110156125c15760405162461bcd60e51b8152602060048201526024808201527f455243313135353a206275726e20616d6f756e7420657863656564732062616c604482015263616e636560e01b606482015260840161072c565b6000928352602083815260408085206001600160a01b038b16865290915290922091039055806125f081613ed1565b9150506124fa565b5060006001600160a01b0316846001600160a01b0316826001600160a01b03167f4a39dc06d4c0dbc64b70af90fd698a233a518aa5d07e595d983b8c0526c8f7fb8686604051612649929190613f04565b60405180910390a4604080516020810190915260009052610828565b6000806000806126818560009081526004602052604090205490565b90508042612690446002613eec565b336040805160208101949094528301919091526bffffffffffffffffffffffff19606091821b16908201526074016040516020818303038152906040528051906020012060001c6126e19190613f32565b6126ec906001613eec565b9350806126fa426005613eec565b612705446004613eec565b336040805160208101949094528301919091526bffffffffffffffffffffffff19606091821b16908201526074016040516020818303038152906040528051906020012060001c6127569190613f32565b612761906001613eec565b92508061276f42600a613eec565b61277a446006613eec565b336040805160208101949094528301919091526bffffffffffffffffffffffff19606091821b16908201526074016040516020818303038152906040528051906020012060001c6127cb9190613f32565b6127d6906001613eec565b93959294505050565b600380546001600160a01b0383811673ffffffffffffffffffffffffffffffffffffffff19831681179093556040519116919082907f8be0079c531659141344cd1fd0a4f28419497f9722a3daafe3b4186f6b6457e090600090a35050565b6001600160a01b03841661289e5760405162461bcd60e51b815260206004820152602160248201527f455243313135353a206d696e7420746f20746865207a65726f206164647265736044820152607360f81b606482015260840161072c565b3360006128aa856132f1565b905060006128b7856132f1565b90506128c88360008985858961313d565b6000868152602081815260408083206001600160a01b038b168452909152812080548792906128f8908490613eec565b909155505060408051878152602081018790526001600160a01b03808a1692600092918716917fc3d58168c5ae7397731d063d5bbf3d657854427343f4c083240f7aacaa2d0f62910160405180910390a46110868360008989898961333c565b6001600160a01b0384166129bc5760405162461bcd60e51b815260206004820152602560248201527f455243313135353a207472616e7366657220746f20746865207a65726f206164604482015264647265737360d81b606482015260840161072c565b3360006129c8856132f1565b905060006129d5856132f1565b90506129e583898985858961313d565b6000868152602081815260408083206001600160a01b038c16845290915290205485811015612a695760405162461bcd60e51b815260206004820152602a60248201527f455243313135353a20696e73756666696369656e742062616c616e636520666f60448201526939103a3930b739b332b960b11b606482015260840161072c565b6000878152602081815260408083206001600160a01b038d8116855292528083208985039055908a16825281208054889290612aa6908490613eec565b909155505060408051888152602081018890526001600160a01b03808b16928c821692918816917fc3d58168c5ae7397731d063d5bbf3d657854427343f4c083240f7aacaa2d0f62910160405180910390a4612b06848a8a8a8a8a61333c565b505050505050505050565b60008215612c635782612b2381613f54565b60008681526005602052604090208054919550915084908110612b4857612b48613ea5565b90600052602060002001549050612b8430612b603390565b8660006040518060400160405280600381526020016203078360ec1b815250612958565b6040518060600160405280612b963390565b6001600160a01b0390811682526020808301859052604092830188905260008881526006825283812086825282528381208551815490851673ffffffffffffffffffffffffffffffffffffffff19909116178155918501516001830155938301516002909101559051908716913480156108fc02929091818181858888f19350505050158015612c2a573d6000803e3d6000fd5b506000848152600560205260409020805480612c4857612c48613f6b565b60019003818190600052602060002001600090559055612dd6565b600084815260096020526040902060060154612c80836001613eec565b1115612cce5760405162461bcd60e51b815260206004820152601360248201527f537570706c79206c696d69742065786365656400000000000000000000000000604482015260640161072c565b612d10338560016040518060400160405280600181526020017f200000000000000000000000000000000000000000000000000000000000000081525061283e565b60008481526004602052604090205490506040518060600160405280612d333390565b6001600160a01b0390811682526020808301859052604092830188905260008881526006825283812086825282528381208551815490851673ffffffffffffffffffffffffffffffffffffffff19909116178155918501516001830155938301516002909101559051908716913480156108fc02929091818181858888f19350505050158015612dc7573d6000803e3d6000fd5b5081612dd281613ed1565b9250505b60408051858152602081018590529081018390526060810182905233907f4765aa6ab550f651ad400146509c6fdec003393877973fd70ae6a2915259278890608001611948565b816001600160a01b0316836001600160a01b03161415612ea55760405162461bcd60e51b815260206004820152602960248201527f455243313135353a2073657474696e6720617070726f76616c2073746174757360448201527f20666f722073656c660000000000000000000000000000000000000000000000606482015260840161072c565b6001600160a01b03838116600081815260016020908152604080832094871680845294825291829020805460ff191686151590811790915591519182527f17307eab39ab6107e8899845ad3d59bd9653f200f220920489ca2b5937696c31910160405180910390a3505050565b6001600160a01b038316612f745760405162461bcd60e51b815260206004820152602360248201527f455243313135353a206275726e2066726f6d20746865207a65726f206164647260448201526265737360e81b606482015260840161072c565b336000612f80846132f1565b90506000612f8d846132f1565b9050612fad8387600085856040518060200160405280600081525061313d565b6000858152602081815260408083206001600160a01b038a1684529091529020548481101561302a5760405162461bcd60e51b8152602060048201526024808201527f455243313135353a206275726e20616d6f756e7420657863656564732062616c604482015263616e636560e01b606482015260840161072c565b6000868152602081815260408083206001600160a01b038b81168086529184528285208a8703905582518b81529384018a90529092908816917fc3d58168c5ae7397731d063d5bbf3d657854427343f4c083240f7aacaa2d0f62910160405180910390a4604080516020810190915260009052611086565b60006001600160e01b031982167fd9b67a2600000000000000000000000000000000000000000000000000000000148061310557506001600160e01b031982167f0e89341c00000000000000000000000000000000000000000000000000000000145b8061076657507f01ffc9a7000000000000000000000000000000000000000000000000000000006001600160e01b0319831614610766565b612408868686868686613438565b6001600160a01b0384163b156124085760405163bc197c8160e01b81526001600160a01b0385169063bc197c819061318f9089908990889088908890600401613f81565b6020604051808303816000875af19250505080156131ca575060408051601f3d908101601f191682019092526131c791810190613fdf565b60015b613280576131d6613ffc565b806308c379a0141561321057506131eb614018565b806131f65750613212565b8060405162461bcd60e51b815260040161072c9190613885565b505b60405162461bcd60e51b815260206004820152603460248201527f455243313135353a207472616e7366657220746f206e6f6e2d4552433131353560448201527f526563656976657220696d706c656d656e746572000000000000000000000000606482015260840161072c565b6001600160e01b0319811663bc197c8160e01b146110865760405162461bcd60e51b815260206004820152602860248201527f455243313135353a204552433131353552656365697665722072656a656374656044820152676420746f6b656e7360c01b606482015260840161072c565b6040805160018082528183019092526060916000919060208083019080368337019050509050828160008151811061332b5761332b613ea5565b602090810291909101015292915050565b6001600160a01b0384163b156124085760405163f23a6e6160e01b81526001600160a01b0385169063f23a6e619061338090899089908890889088906004016140a2565b6020604051808303816000875af19250505080156133bb575060408051601f3d908101601f191682019092526133b891810190613fdf565b60015b6133c7576131d6613ffc565b6001600160e01b0319811663f23a6e6160e01b146110865760405162461bcd60e51b815260206004820152602860248201527f455243313135353a204552433131353552656365697665722072656a656374656044820152676420746f6b656e7360c01b606482015260840161072c565b6001600160a01b0385166134bf5760005b83518110156134bd5782818151811061346457613464613ea5565b60200260200101516004600086848151811061348257613482613ea5565b6020026020010151815260200190815260200160002060008282546134a79190613eec565b909155506134b6905081613ed1565b9050613449565b505b6001600160a01b0384166124085760005b83518110156110865760008482815181106134ed576134ed613ea5565b60200260200101519050600084838151811061350b5761350b613ea5565b60200260200101519050600060046000848152602001908152602001600020549050818110156135a35760405162461bcd60e51b815260206004820152602860248201527f455243313135353a206275726e20616d6f756e74206578636565647320746f7460448201527f616c537570706c79000000000000000000000000000000000000000000000000606482015260840161072c565b600092835260046020526040909220910390556135bf81613ed1565b90506134d0565b6040805160a0810182526000808252602082018190529181018290526060810191909152608081016135f661367f565b905290565b82805461360790613e6a565b90600052602060002090601f016020900481019282613629576000855561366f565b82601f1061364257805160ff191683800117855561366f565b8280016001018555821561366f579182015b8281111561366f578251825591602001919060010190613654565b5061367b92915061369d565b5090565b60405180606001604052806003906020820280368337509192915050565b5b8082111561367b576000815560010161369e565b80356001600160a01b0381168114611a0657600080fd5b600080604083850312156136dc57600080fd5b6136e5836136b2565b946020939093013593505050565b6001600160e01b03198116811461077d57600080fd5b60006020828403121561371b57600080fd5b8135613726816136f3565b9392505050565b634e487b7160e01b600052604160045260246000fd5b601f8201601f1916810167ffffffffffffffff811182821017156137695761376961372d565b6040525050565b600067ffffffffffffffff83111561378a5761378a61372d565b6040516137a1601f8501601f191660200182613743565b8091508381528484840111156137b657600080fd5b83836020830137600060208583010152509392505050565b6000602082840312156137e057600080fd5b813567ffffffffffffffff8111156137f757600080fd5b8201601f8101841361380857600080fd5b61381784823560208401613770565b949350505050565b60006020828403121561383157600080fd5b5035919050565b6000815180845260005b8181101561385e57602081850181015186830182015201613842565b81811115613870576000602083870101525b50601f01601f19169290920160200192915050565b6020815260006137266020830184613838565b600067ffffffffffffffff8211156138b2576138b261372d565b5060051b60200190565b600082601f8301126138cd57600080fd5b813560206138da82613898565b6040516138e78282613743565b83815260059390931b850182019282810191508684111561390757600080fd5b8286015b84811015613922578035835291830191830161390b565b509695505050505050565b600082601f83011261393e57600080fd5b61372683833560208501613770565b6000806000806080858703121561396357600080fd5b61396c856136b2565b9350602085013567ffffffffffffffff8082111561398957600080fd5b613995888389016138bc565b945060408701359150808211156139ab57600080fd5b6139b7888389016138bc565b935060608701359150808211156139cd57600080fd5b506139da8782880161392d565b91505092959194509250565b600080604083850312156139f957600080fd5b50508035926020909101359150565b600060e0820190506001600160a01b03808451168352602081818601511681850152816040860151166040850152606085015115156060850152608085015191506080840160005b6003811015613a6f578351151582529282019290820190600101613a50565b5050505092915050565b600080600080600060a08688031215613a9157600080fd5b613a9a866136b2565b9450613aa8602087016136b2565b9350604086013567ffffffffffffffff80821115613ac557600080fd5b613ad189838a016138bc565b94506060880135915080821115613ae757600080fd5b613af389838a016138bc565b93506080880135915080821115613b0957600080fd5b50613b168882890161392d565b9150509295509295909350565b60008060408385031215613b3657600080fd5b823567ffffffffffffffff80821115613b4e57600080fd5b818501915085601f830112613b6257600080fd5b81356020613b6f82613898565b604051613b7c8282613743565b83815260059390931b8501820192828101915089841115613b9c57600080fd5b948201945b83861015613bc157613bb2866136b2565b82529482019490820190613ba1565b96505086013592505080821115613bd757600080fd5b50613be4858286016138bc565b9150509250929050565b600081518084526020808501945080840160005b83811015613c1e57815187529582019590820190600101613c02565b509495945050505050565b6020815260006137266020830184613bee565b600080600060608486031215613c5157600080fd5b613c5a846136b2565b9250602084013567ffffffffffffffff80821115613c7757600080fd5b613c83878388016138bc565b93506040860135915080821115613c9957600080fd5b50613ca6868287016138bc565b9150509250925092565b60008060008060808587031215613cc657600080fd5b613ccf856136b2565b93506020850135925060408501359150606085013567ffffffffffffffff811115613cf957600080fd5b6139da8782880161392d565b60008060408385031215613d1857600080fd5b613d21836136b2565b915060208301358015158114613d3657600080fd5b809150509250929050565b60008060008060008060c08789031215613d5a57600080fd5b505084359660208601359650604086013595606081013595506080810135945060a0013592509050565b60008060408385031215613d9757600080fd5b613da0836136b2565b9150613dae602084016136b2565b90509250929050565b600080600080600060a08688031215613dcf57600080fd5b613dd8866136b2565b9450613de6602087016136b2565b93506040860135925060608601359150608086013567ffffffffffffffff811115613e1057600080fd5b613b168882890161392d565b600060208284031215613e2e57600080fd5b613726826136b2565b600080600060608486031215613e4c57600080fd5b613e55846136b2565b95602085013595506040909401359392505050565b600181811c90821680613e7e57607f821691505b60208210811415613e9f57634e487b7160e01b600052602260045260246000fd5b50919050565b634e487b7160e01b600052603260045260246000fd5b634e487b7160e01b600052601160045260246000fd5b6000600019821415613ee557613ee5613ebb565b5060010190565b60008219821115613eff57613eff613ebb565b500190565b604081526000613f176040830185613bee565b8281036020840152613f298185613bee565b95945050505050565b600082613f4f57634e487b7160e01b600052601260045260246000fd5b500690565b600081613f6357613f63613ebb565b506000190190565b634e487b7160e01b600052603160045260246000fd5b60006001600160a01b03808816835280871660208401525060a06040830152613fad60a0830186613bee565b8281036060840152613fbf8186613bee565b90508281036080840152613fd38185613838565b98975050505050505050565b600060208284031215613ff157600080fd5b8151613726816136f3565b600060033d11156140155760046000803e5060005160e01c5b90565b600060443d10156140265790565b6040516003193d81016004833e81513d67ffffffffffffffff816024840111818411171561405657505050505090565b828501915081518181111561406e5750505050505090565b843d87010160208285010111156140885750505050505090565b61409760208286010187613743565b509095945050505050565b60006001600160a01b03808816835280871660208401525084604083015283606083015260a060808301526140da60a0830184613838565b97965050505050505056fea264697066735822122081fa7f3424a636981ba423ae36f15441a2536f6008c6bfa366b316a5abff402764736f6c634300080b0033",
  "linkReferences": {},
  "deployedLinkReferences": {}
}